:1000000006C1000016C1000014C1000012C10000AA
:1000100010C100000EC100000CC100000AC10000A8
:1000200008C1000006C1000004C1000002C10000B8
:1000300000C10000FEC00000FCC00000FAC00000CB
:10004000F8C00000F6C00000F4C00000F2C00000DC
:10005000F0C00000EEC00000ECC00000A4C1000031
:10006000E8C00000E6C00000E4C00000E2C00000FC
:10007000E0C00000DEC00000DCC00000DAC000000C
:10008000D8C00000D6C00000D4C00000D2C000001C
:10009000D0C00000CEC00000CCC00000CAC000002C
:1000A000C8C00000C6C00000C4C00000C2C000003C
:1000B000C0C00000BEC00000BCC00000BAC000004C
:1000C000B8C00000B6C00000B4C00000B2C000005C
:1000D000B0C00000AEC00000ACC00000AAC000006C
:1000E000A8C0000048014B013A013E0142018201D3
:1000F0004F01530159015D01610167016B016F01FE
:100100008201750179017D01000021002400270092
:100110002A002D0030003300010100000401070116
:100120000A0100002200250028002B002E003100CB
:10013000340002010000050108010B010505050559
:10014000070508080808020202020A0A080804044F
:10015000040401010101010101010303030303037D
:100160000303040707070C0C0C0C0C0C0C0C02020C
:10017000020206060606060606060B0B0B0B0B0B09
:100180000B0B010210202008081020401020408096
:10019000020102010804020101020408102040804B
:1001A00080402010080402018004020180402010D9
:1001B0000804020108040201010204081020408022
:1001C000010204081020408000000A0B02090C0DF7
:1001D0000E080703040100000000000000000000FA
:1001E000000000000000000000000000000000000F
:1001F00000000000121110000000000000000000CC
:1002000000000000000000000000000000001124B9
:100210001FBECFEFD1E2DEBFCDBF00E00CBF22E0BA
:10022000A0E0B2E001C01D92AB30B207E1F705D10A
:10023000F1C1E6CE362F90E0FC01E853FE4F449129
:10024000FC01EE57FE4F2491FC01E45CFE4F9491BB
:10025000992309F46BC0442309F454C050E0FA0117
:100260003197E231F10508F04DC08827EE58FF4F75
:100270008F4FC8C1809180008F7707C08091800028
:100280008F7D03C080918000877F809380003AC07B
:1002900084B58F7702C084B58F7D84BD33C08091D3
:1002A000B0008F7703C08091B0008F7D8093B00045
:1002B00029C0809190008F7707C0809190008F7D3A
:1002C00003C080919000877F809390001BC0809135
:1002D000A0008F7707C08091A0008F7D03C0809120
:1002E000A000877F8093A0000DC0809120018F77B0
:1002F00007C0809120018F7D03C080912001877FFE
:1003000080932001E92FF0E0EE0FFF1FEE5DFE4F1E
:10031000A591B4919FB7F894311104C08C912095A8
:10032000282302C0EC912E2B2C939FBF0895CF93CE
:10033000DF9390E0FC01EE57FE4F2491FC01E45C5A
:10034000FE4F8491882361F190E0880F991FFC0192
:10035000E85FFE4FC591D491FC01EE5DFE4FA59183
:10036000B491611109C09FB7F894888120958223C8
:100370008883EC912E230BC0623061F49FB7F89410
:100380008881322F309583238883EC912E2B2C93F8
:100390009FBF06C08FB7F894E8812E2B28838FBFAC
:1003A000DF91CF9108951F920F920FB60F921124F3
:1003B0002F933F938F939F93AF93BF9380910702A7
:1003C00090910802A0910902B0910A0230910602B0
:1003D00023E0230F2D3720F40196A11DB11D05C088
:1003E00026E8230F0296A11DB11D209306028093DB
:1003F000070290930802A0930902B0930A02809129
:10040000020290910302A0910402B09105020196AC
:10041000A11DB11D8093020290930302A0930402D8
:10042000B0930502BF91AF919F918F913F912F9112
:100430000F900FBE0F901F901895789484B582602E
:1004400084BD84B5816084BD85B5826085BD85B578
:10045000816085BD80916E00816080936E001092F6
:100460008100809181008260809381008091810071
:100470008160809381008091800081608093800002
:100480008091B10084608093B1008091B000816060
:100490008093B00080919100826080939100809160
:1004A00091008160809391008091900081608093A1
:1004B00090008091A10082608093A1008091A100B2
:1004C00081608093A1008091A00081608093A00052
:1004D00080912101826080932101809121018160BE
:1004E000809321018091200181608093200180917F
:1004F0007A00846080937A0080917A008260809391
:100500007A0080917A00816080937A0080917A00ED
:10051000806880937A001092C10060E086E307DF74
:1005200061E084E004DF61E081E001DF61E082E01E
:10053000FEDE61E083E0FBDE00E010E080E4F82E08
:1005400080917B00877F80937B00F0927C0080917C
:100550007A00806480937A0080917A0086FDFCCFD7
:10056000C091780080917900D0E0D82BD09301021F
:10057000C0930002CB3FD10564F460E084E05ADE12
:1005800060E081E057DE60E082E054DE60E083E01E
:1005900051DECE018B5F91098A3F910560F461E0E5
:1005A00084E048DE61E081E045DE60E082E042DE3A
:1005B00060E083E03FDECE01855F91408A3F910598
:1005C00058F461E084E036DE61E081E033DE61E032
:1005D00082E030DE60E00DC0CB3FD10564F461E025
:1005E00084E028DE61E081E025DE61E082E022DE59
:1005F00061E083E01FDE0115110509F4A1CF0E941F
:1006000000009ECFEE0FFF1F881F8BBF0790F69153
:08061000E02D1994F894FFCFCE
:00000001FF
