:100000000C9461000C9473000C9473000C947300B6
:100010000C9473000C9473000C9473000C94730094
:100020000C9473000C9473000C9473000C94730084
:100030000C9473000C9473000C9473000C94730074
:100040000C941D010C9473000C9473000C947300B9
:100050000C9473000C9473000C9473000C94730054
:100060000C9473000C94730000000000240027001F
:100070002A0000000000250028002B0000000000DE
:1000800023002600290004040404040404040202DA
:100090000202020203030303030301020408102007
:1000A0004080010204081020010204081020000012
:1000B0000008000201000003040700000000000027
:1000C000000011241FBECFEFD8E0DEBFCDBF21E07E
:1000D000A0E0B1E001C01D92AD30B207E1F70E948F
:1000E00067010C9472020C940000833081F028F4B4
:1000F000813099F08230A9F008958730A9F08830D6
:10010000C9F08430B1F4809180008F7D03C080916C
:1001100080008F7780938000089584B58F7784BDA9
:10012000089584B58F7DFBCF8091B0008F77809349
:10013000B00008958091B0008F7DF9CF1F93CF93C9
:10014000DF93282F30E0F901E255FF4F8491F90148
:10015000E656FF4FD491F901EA57FF4FC491CC23E3
:10016000A9F0162F81110E947500EC2FF0E0EE0F20
:10017000FF1FEE58FF4FA591B4918FB7F894EC9103
:10018000111108C0D095DE23DC938FBFDF91CF9192
:100190001F910895DE2BF8CFCF93DF9390E0FC0101
:1001A000E656FF4F24918A579F4FFC018491882384
:1001B000C9F090E0880F991FFC01E859FF4FA59105
:1001C000B491FC01EE58FF4FC591D49161110DC05F
:1001D0009FB7F8948C91209582238C938881282353
:1001E00028839FBFDF91CF910895623051F49FB76C
:1001F000F8943C91822F809583238C93E8812E2B59
:10020000EFCF8FB7F894EC912E2B2C938FBFEACFC2
:100210008E3008F08E508770806480937C008091CF
:100220007A00806480937A0080917A0086FDFCCF0A
:10023000809178009091790008951F920F920FB6E7
:100240000F9211242F933F938F939F93AF93BF935C
:100250008091090190910A01A0910B01B0910C01CC
:100260003091080123E0230F2D3758F50196A11D89
:10027000B11D209308018093090190930A01A09376
:100280000B01B0930C018091040190910501A091A4
:100290000601B09107010196A11DB11D80930401D3
:1002A00090930501A0930601B0930701BF91AF9110
:1002B0009F918F913F912F910F900FBE0F901F90A4
:1002C000189526E8230F0296A11DB11DD2CF789470
:1002D00084B5826084BD84B5816084BD85B582604B
:1002E00085BD85B5816085BD80916E0081608093FC
:1002F0006E00109281008091810082608093810065
:100300008091810081608093810080918000816074
:10031000809380008091B10084608093B1008091CF
:10032000B00081608093B00080917A0084608093F7
:100330007A0080917A00826080937A0080917A00BE
:10034000816080937A0080917A00806880937A003F
:100350001092C10060E08EE00E94CC0060E083E17A
:100360000E94CC0061E084E00E94CC0061E081E06A
:100370000E94CC0061E082E00E94CC0061E083E05A
:100380000E94CC0061E083E00E94CC0062E088E043
:100390000E94CC0096EB692E90E0792E22EAC22EC4
:1003A00020E0D22E3EE8A32E30E0B32E40E0842E93
:1003B00040E0942EF3018491F601D491F501C491AB
:1003C000F12CE12CCC2399F081110E947500EC2FC7
:1003D000F0E0EE0FFF1FE458FF4FA591B4918C9110
:1003E000D82391E080E009F490E0E92EF82E8EE029
:1003F0000E9408018C01909303018093020183E124
:100400000E940801EC019093010180930001EF2804
:1004100009F04DC00B3F11059CF48B3F910584F40E
:1004200060E084E00E949E0060E081E00E949E0007
:1004300060E082E00E949E0060E083E00E949E00F7
:10044000C8018B5F91098A3F9105B0F4CE018B5FA3
:1004500091098A3F910580F461E084E00E949E004A
:1004600061E081E00E949E0060E082E00E949E00C8
:1004700060E083E00E949E00C801855F91408A3F52
:100480009105E0F4C55FD140CA3FD10580F461E039
:1004900084E00E949E0061E081E00E949E0061E095
:1004A00082E00E949E0060E083E00E949E00811432
:1004B000910409F47FCF0E9400007CCF0F3E1240D0
:1004C000B4F3CF3ED2409CF361E084E00E949E00F2
:1004D00061E081E00E949E0061E082E00E949E0057
:0804E00061E0E2CFF894FFCFC8
:00000001FF
